:020000022000DC
:1060000000000120756302005D6302005F6302000F
:106010006163020063630200656302000000000028
:1060200000000000000000000000000067630200A4
:1060300069630200000000006B6302006D630200F0
:10604000718802006F630200B18C02006F6302006E
:106050006F6302006F6302002D8B02006F6302000A
:106060006F6302006F6302006F6302006F630200E0
:106070006F6302006F6302006F6302006F630200D0
:106080006F630200FD7802006F6302006F6302001D
:106090006F6302006F63020015B802006F630200B5
:1060A0006F6302006F6302006F6302006F630200A0
:1060B0006F6302006F630200000000000000000038
:1060C0006F6302006F6302006F6302006F63020080
:1060D0006F6302006F6302006F6302000000000044
:1060E00000000000000000000000000000000000B0
:1060F00000000000000000000000000000000000A0
:10610000000000000000000000000000000000008F
:10611000000000000000000000000000000000007F
:10612000000000000000000000000000000000006F
:10613000000000000000000000000000000000005F
:10614000000000000000000000000000000000004F
:10615000000000000000000000000000000000003F
:10616000000000000000000000000000000000002F
:10617000000000000000000000000000000000001F
:10618000000000000000000000000000000000000F
:1061900000000000000000000000000000000000FF
:1061A00000000000000000000000000000000000EF
:1061B00000000000000000000000000000000000DF
:1061C00000000000000000000000000000000000CF
:1061D00000000000000000000000000000000000BF
:1061E00000000000000000000000000000000000AF
:1061F000000000000000000000000000000000009F
:10620000354936480A1A02D0072291438D4634494F
:1062100034480A1A06D00722914381F309880222E2
:1062200082F3148830483149314A00F044F831484B
:106230003149324A00F03FF831483249324A00F0E1
:106240003AF832483249334A00F035F83248334997
:10625000334A00F030F833483349344A00F02BF821
:1062600033483449344A00F026F83448344900228F
:1062700000F02CF833483449002200F027F8334866
:106280003349091A082902DB002202604160314AC1
:1062900090471F481F49884205D00268043003B464
:1062A000904703BCF7E700208646EC46002000211B
:1062B000294A9047FEE7884207D0521A05D0037852
:1062C00001300B700131013AF9D17047884202D098
:1062D00002700130FAE770470000012000E0002062
:1062E000000001200000012090D40200D82A0020E4
:1062F000402B0020D0630200D0630200E4C40200FF
:1063000090D40200D82A0020D82A0020E8C5020034
:10631000E8C50200E8C50200E8C50200E8C50200C1
:10632000E8C50200E8C50200E8C502008FD40200FB
:10633000F8D40200402B0020402B0020402B0020EE
:106340004C3E00204C3E00204C3E00204C3E0020A5
:106350004C5E00209D630200A59E0200FEE7FEE762
:10636000FEE7FEE7FEE7FEE7FEE7FEE7FEE7FEE705
:1063700000F002B8FFF7FCBF0F484FF00701884359
:1063800085460E4880470E48016841F4700101605F
:10639000BFF34F8FBFF36F8FFFF732BF09480A4932
:1063A0000A4A884207D0521A05D0037801300B7090
:1063B0000131013AF9D17047000001208D820200BD
:1063C00088ED00E0E8C50200D82A0020D82A002085
:1063D0007047000007B5044B0093044A402300F0C7
:1063E00032F803B05DF804FBF1630200412B00209A
:1063F0002DE9F84388461446B2B10F4B0F4E0325E2
:10640000002743F00109224608EB0701002003F0B2
:10641000DDFE0744241A48B933782BB14FF47A4093
:10642000C847013D02D13570BDE8F88301233370C0
:10643000002CE8D1F8E700BFF0C50200402B002097
:10644000704703F0F7BEF0B595B01D4616460846F6
:106450000C4601F005FE1A9B0D93CDE90865002559
:106460002B46082205A920460A958DF82C500C953C
:1064700001F013FE079B0293069B03939DF81430D3
:106480008DF8115003F00302012A1DD1BDF814202C
:10649000059DC3F3C203C2F383168DF81030B2001A
:1064A00008230EA9204601F0F8FDC5F3952508AB99
:1064B0000093324602AB0EA9284600F055FB204659
:1064C00001F0D2FD15B0F0BD022AF8D1BDF816508A
:1064D000C3F3C203C5F389158DF810300827082DC2
:1064E0002E4628BF08263B4632460EA9204601F01C
:1064F000D4FDAD1B08AB02AA31460EA8374400F00C
:1065000097FB002DEBD1DAE708B5FFF79AFF0448B7
:10651000042100F091FA034B01225A7108BD00BF1B
:10652000D8C50200D82A0020037813F0040216D040
:1065300003F00303012B03D0022B09D00120704785
:106540000A6800880232C0F3831002440A60F5E74B
:106550000B684288023303EB92130B60EEE71046A0
:10656000704700002DE9F04F87B000230446861CD9
:106570000DF107000F4615468DF8073001F04EF873
:10658000454801683960D0E90132134401335B1A90
:10659000824600F21C4700F5836900F21448B342BA
:1065A0001CD30020002D73D004F00F039B0143F097
:1065B000050363F30F00DAF80020DAF8083013401F
:1065C000033316444AF823009DF80700CAF8006018
:1065D00001F048F8012007B0BDE8F08F01213846EE
:1065E00001F069FA484601F07EFA404601F07BFA74
:1065F000DAF80400DAF808B0029000EA0B00033081
:106600000AEB800002A9FFF78FFF029B50BB0BEA49
:1066100003020AEB820203F1020CD26803920133F7
:1066200003EA0B0B0AEB8B0B02F00302012ADBF8E7
:106630000C10CDF808C023D0022A16D0834640465D
:1066400001F054FA10B1029BCAF80430594638469A
:1066500001F031FADAE901231344DAF800200133BA
:106660009B1A9CE70BEA0300C9E7BDF80E30C3F3A1
:10667000891303334FEA114B0CEB93030293DEE7CC
:10668000BDF80C30C3F383134FEA114B6344F5E7B5
:10669000A40544F006008EE7542C00200B4B0C4858
:1066A000FF2210B59A600022C3F81824C3E9002223
:1066B000C3F8142483F8202401F08BFC044610B99D
:1066C000044801F033FD204610BD00BF542C0020CB
:1066D00044C502002CC6020030B50A4C71B10A4A0A
:1066E0000A49121BD20800239A4201D1002030BD72
:1066F00031F82350854202D00133F5E7034654F8C0
:106700003300F4E758C50200D8C50200D82A00209B
:10671000094B013903EBC000032909D8DFE801F078
:106720000A020406042070470079704740797047D8
:10673000002070470220704758C50200034BD3E980
:106740000030C31A58425841704700BF542C0020F3
:106750002DE9F04387B0FFF7F1FF0646002840F02F
:10676000F9807D4DC5F81804BFF34F8F6B68AC6896
:1067700002932340033305EB830002A9FFF7D4FE05
:10678000029B18B1D5F81824002A5FD004EA03024E
:10679000991C013305EB8202234005EB8303D26889
:1067A000DB68049302F00303022B0392029160D191
:1067B000BDF80E306948C3F38917502FB84628BF7B
:1067C0004FF0500868F38F1308F10801ADF80E3050
:1067D00001F017FC0646002800F0A78001F040FCFD
:1067E0000023082203A9304601F04DFC029924EA57
:1067F00001020132B8EB820F4FEA820332D95FFA0D
:1068000088F85BB32140DCB2A8EB040803315FFADF
:1068100088F9A046524C05EB8101082342463046D8
:1068200001F031FC34B108F108034A4621463046F4
:1068300001F029FC029B033703EB97070297D5F879
:106840001834002B49D1D5F8104459E02A689A42EF
:106850008FD86A60304607B0BDE8F08340491C46D7
:106860009946DAE70C40E11C0823424605EB81011A
:10687000DDE7012B59D1BDF80C303848C3F3831143
:10688000062928BF062161F3891302318900ADF87A
:106890000C3001F0B6FB0646002846D001F0E0FBC4
:1068A0000023082203A9304601F0EDFB0027BDF8C4
:1068B0000C20C2F38312BB00974203F10803BED23F
:1068C00002994A1C21400331029205EB8101042206
:1068D000304601F0D8FB0137E9E7304601F0C4FB50
:1068E000FFF72CFF80F00100C6B2B3E7E3685B79E5
:1068F00023B1236831461B6820469847E3681C682B
:10690000002CF3D1304601F0AFFB0DF107008DF8FC
:10691000074000F083FED5F818340BB9029B6B607A
:106920009DF8070000F09EFEDAE7D5F8104454B950
:106930000C4B0D480D49C01AC008000440F002007D
:1069400000F062F8CCE7236820469B689847E3682C
:106950001C68ECE700267DE7542C002044C50200AB
:10696000602C002058C5020080C5020014C6020039
:106970002DE9F74F224D04460F46924601A9012208
:106980001846D5F808909B46FFF7ECFD20B3019E12
:106990004FF00008B21CD84508EB020126D1194877
:1069A000002101F059F880F31000000440EA14407F
:1069B000E400731C04F0380403EA090306EA09063C
:1069C00044F0010405EB8303033644EA881444EAE7
:1069D0008724D86045F8264095F820341BB1FFF78E
:1069E000B7FE0028FBD103B0BDE8F08F09EA010132
:1069F00005EB81015AF82830CB6008F10108CAE79D
:106A0000542C00207030002000231A46FFF7B0BF3E
:106A100007B50123019201AAFFF7AAFF03B05DF8B1
:106A200004FB07B5CDE9002302236A46FFF7A0FF68
:106A300003B05DF804FB000030B50F49D1F8102415
:106A400003460020144634B9DC6820714AB9C1F805
:106A50001034226030BDE4682579854206D0246870
:106A6000F1E7D268116821601360F3E701300A286A
:106A7000E8D14FF0FF30EDE7542C0020094A38B53B
:106A80000123D2F8104482F820341D4604B938BDE1
:106A9000E3685D71236820465B689847E3681C687B
:106AA000F4E700BF542C002007B503460846197AC6
:106AB000052911D05B7A2BB1094A0A49019001F0EE
:106AC00078F801980849019001F073F8019803B033
:106AD0005DF804EB01F062B8002AF8D0F2E700BFDD
:106AE00038C602003DC6020099CD020030B5C38809
:106AF00085B004460D4633B1144A00921449154A34
:106B0000284601F056F8217A05291DD0637A4BB149
:106B1000A088FFF7FDFD104B104953F820202846B0
:106B200001F047F8227A0E4BA08853F822200392F6
:106B30000021FFF7D1FD039A0A490346284605B014
:106B4000BDE8304001F035B805B030BD38C60200B0
:106B500048C6020040C60200C4C602003DC602008C
:106B6000E8C6020060C602002DE9F04385B01F466A
:106B70000C9D002395F80C902B7306460C4690460E
:106B800029463846FFF7B2FFB8F1060F09D8DFE80B
:106B900008F00412181F283340003146284601F03F
:106BA00008F8002229463846FFF77EFF85F80C904A
:106BB00005B0BDE8F08322683146284600F0F9FFB1
:106BC000EFE7D4E900233146284600F0F2FFE8E77A
:106BD000A36800933146D4E90023284600F0E9FF7A
:106BE000DFE7E3680193A36800933146D4E900230B
:106BF000284600F0DEFFD4E723690293E36801939F
:106C0000A36800933146D4E90023284600F0D1FF61
:106C1000C7E76369039323690293E3680193A36859
:106C200000933146D4E90023284600F0C2FFB8E7BC
:106C300008292DE9F74F80460E4617461C463CD8DA
:106C4000002593F80C901D7319461046FFF74EFF70
:106C5000DFF888A0DFF888B0AE4231D918F80520F7
:106C60005946204600F0A5FF0135082DF4D11949F9
:106C7000194DDFF870A0204600F09BFF4FF0000B8D
:106C80005E4522D918F80B207E2A05D810460192BD
:106C900005F026F8019A00B92E225146204600F050
:106CA00088FF0BF1010BBBF1080FE9D1012221464E
:106CB0003846FFF7F9FE84F80C9003B0BDE8F08F7A
:106CC0005146204600F075FFCEE72946204600F0E9
:106CD00070FFE6E774C6020072C6020070C60200CA
:106CE0006AC6020076C60200C30710B507D4F023B7
:106CF000054A4008145C23401943115410BD090192
:106D0000C9B20F23F4E700BF4031002030B5094B72
:106D10001C78094B196800239C4202DC00221046B3
:106D200030BD11F83350854201EBC302F7D0013377
:106D3000F2E700BF103100205031002013B50446A7
:106D40000191FFF7E3FF38B143682BB10199204669
:106D500002B0BDE81040184702B010BD034B044814
:106D600019680022490800F05CBA00BF1431002005
:106D70001831002010B5C0B2FFF7C8FF04460078F4
:106D800001F0CAFE63785A1E53425341834208D130
:106D9000044BD3E90023134303D1BDE81040FFF7B0
:106DA000DDBF10BD3831002037B54308354AD35C0C
:106DB000C2074CBF1B0903F00F0304460D46042B0A
:106DC00035D8DFE803F003252C383C0079B30121E6
:106DD000FFF78AFF00230DF107008DF8073000F060
:106DE0001DFC0120A4F12003C4F12001264A20FA51
:106DF00001F100FA03F30B43A040D2E90041204324
:106E00000B43C2E900039DF8070000F02BFC0EE0E5
:106E1000002918BF02212046FFF766FF07E041B1B5
:106E20000321FFF761FF01212046FFF787FF03B031
:106E300030BD0121EFE70029F9D10421EBE709B1C9
:106E40000321E8E7FFF750FF29462046FFF776FFCA
:106E50000DF107008DF8075000F0E0FB0120A4F1D0
:106E60002003C4F12001084A20FA01F100FA03F3DB
:106E70000B43A040D2E9004124EA000021EA0303C9
:106E8000BFE700BF40310020383100202DE9F0413C
:106E9000124E134F00243378A34208DC114BD3E980
:106EA0000023134318D0BDE8F041FFF757BF3D68FA
:106EB00005EBC40815F8340001F02EFE98F80130F7
:106EC0005A1E53425341181A4142414115F83400A9
:106ED000FFF76AFF0134DEE7BDE8F08110310020E2
:106EE0005031002038310020092AF7B505460C46FC
:106EF00016463CD901F050FDD8B11E4B1E481D600E
:106F00001E4B1F4F1C701F4B002110221E6004F0EF
:106F100047FF1D4B00200021C3E90001013CE4B202
:106F20000326FF2C0BD1194A1948002100F06EF9F5
:106F300003E001F0F9FC0028DFD003B0F0BD9DF8BC
:106F4000063015F834008DF8046005EBC40223F018
:106F500007038DF8063001A993788DF805303A467D
:106F600001F024FD013CE4B20028DAD0E5E7072077
:106F7000E3E700BF503100204031002010310020F5
:106F8000756D020014310020383100208D6E020032
:106F900008C7020070B5084D084E00242B789C42AB
:106FA00001D3002070BD3368012113F8340001F0D3
:106FB0006FFD0134F2E700BF103100205031002096
:106FC0001FB50021039001AA44F20100CDE901118F
:106FD00000F004F805B05DF804FB000010B572B6CF
:106FE000FFF74CFDFFF7B4FB0028FBD1104B114C11
:106FF0001149E41AE408240444F00100FFF704FDF9
:107000000E4B1B68DB0700D500BE0D4944F00200A3
:10701000FFF7FAFCBFF34F8F0A490B4BCA6802F423
:10702000E0621343CB60BFF34F8F00BFFDE700BFAB
:1070300058C5020080C502000CC70200F0ED00E058
:1070400018C7020000ED00E00400FA0549B152B192
:10705000531E1A4007D1826001608380C2601046CF
:1070600070470E2070470920704710B58468C268C9
:107070008388121B934208D3C26813400268D1541C
:10708000C3680133C360002010BD0420FCE78268A0
:10709000C3689A420AD08268838813400268D35C2E
:1070A0000B708368013383600020704705207047B0
:1070B000D0E90223D1E90201994208BF90422CBFD6
:1070C000012000207047000008B50B4800F001FCCB
:1070D0000A4B0B49D3E900231218D1E9000143F10F
:1070E00000038B4208BF824203D212F1807243F147
:1070F00000031046194608BDE02A00205831002040
:10710000D031002037B505460C460A4801A900F0E9
:1071100012FC60B10570446001A9064800F035FC1E
:1071200018B1054800F0DAFB002003B030BD0420A0
:10713000FBE700BFBC310020E02A002038B5184B27
:107140001B78044613B90025284638BD0028FAD01C
:10715000037F03F0FF05002BF5D0FFF7B5FFD4E95F
:107160000223994208BF904214D3236903B92377BD
:10717000D4E90530984721690029E4D0237F03F042
:10718000FF05002BDFD0D4E90223521843F100039E
:10719000C4E902230348214600F0E7FFD4E700BF1B
:1071A0006031002034C7020013B5114B1149186833
:1071B000019008231048582200F0AAFB044698B911
:1071C0000E4A0F4801A900F071FA044660B90C4854
:1071D000012100F061FB01230A4A0948194600F029
:1071E000C3FA094B01221A70204602B010BD00BF3D
:1071F00030C7020064310020BC3100206D720200F3
:10720000E02A0020FFFF7F00603100203AB10368D0
:107210005A614A1E514251411961002070470720AE
:10722000704738B5037F04460D4683B98261FFF786
:107230004BFF2369401941F10001C4E9020103B188
:10724000256121460020BDE83840FFF75BBF0020E4
:1072500038BD0023014603770120FFF753BF00002C
:10726000014800F036BB00BFE02A00202DE9F04FB6
:1072700085B0804600F018FB40B15A4AD2E900318F
:1072800013F1807341F10001C2E900310021404651
:1072900000F019FB38B1544E336823B13068FFF762
:1072A0004DFF002333600121404600F00CFB20B16C
:1072B000FFF70AFF4D4BC3E900014D484A4F4D4EC1
:1072C000DFF8389103A900F070FB002845D1DFF802
:1072D0002491454EDFF828A1484600F05CFF336852
:1072E000002875D07BB13368D0E90201D3E90223CD
:1072F000994208BF90422DD233681B7F1BB1316881
:10730000484600F032FF484600F03FFFD0E902B3A4
:1073100007460193FFF7D8FE019BBBEB000463EB2C
:107320000105012C75F1000345DBB4F5350F40D3A1
:10733000FFF796FF304A02444FF49603002150466F
:1073400000F032FA00283ED1336813B9404600F00D
:1073500003FA376005B0BDE8F08F0378012B1DD02C
:10736000022B09D14FF0000A304600F00EFF002832
:1073700034D080F81CA0F7E73BB941680B7F23B9F4
:1073800001230B77304600F0F0FE03A9184800F007
:1073900037FB03A9164800F008FB96E741683B68F5
:1073A000994202D100233B60EFE7304600F0F6FE41
:1073B000EBE7BA68C0E70021504600F07AFA384699
:1073C000FFF7BCFE01E00D28F9D00023336083E70E
:1073D000002BBFD1404600F0C3F9BBE7012389F879
:1073E0000030D2E758310020D8310020D0310020C1
:1073F000BC31002034C70200FFFFB4006031002020
:10740000E02A00200648074A03780749D35C012296
:1074100013B1043002F0A6B80C3001F06BBE00BF0F
:10742000E82A00204C320020043200200648074A97
:1074300003780749D35C012213B1043002F03EB84F
:107440000C3001F005BE00BFE82A00204C320020BD
:107450000532002037B50578012D0BD0022D2ED036
:1074600065B91E491E48FFF712FE002832D1FFF70A
:10747000DDFF03E0037A1BB9FFF7C4FF03B030BDA3
:107480004368184C19782046FFF7EFFD80B18DF85E
:1074900000500190144B68461B689847A168E36848
:1074A000A2885B1A9A42E7D2104B01221A70E5E7D4
:1074B000A268E3689A42F1D08DF80000EAE7C36859
:1074C0008DF800500193FFF79DFF074B68461B683E
:1074D0009847D3E703238DF80030F6E70532002004
:1074E000F4310020E0310020DC310020F0310020B8
:1074F000F0B51F46234B89B004461A600D4600299B
:107500003DD08A8820480968FFF7A0FD002834D1C3
:10751000AA89A9681D48FFF799FD00282DD11C4EA6
:107520000FCE6D460FC596E80F0085E80F00636922
:107530000693237C174A18488DF81C70003B18BF2F
:1075400001238DF81430637C002B14BF0E2300231D
:107550008DF81530E3680293A368039323680193C1
:1075600069466368009301F01BF930B90B4B187042
:107570002368013301D0FFF745FF09B0F0BD0720B4
:10758000FBE700BFDC310020E0310020F4310020B7
:1075900040C7020055740200E82A0020F0310020A4
:1075A00070B5084D014608482E78FFF770FD044677
:1075B00036B100232B70FFF725FF08B1FFF700FD60
:1075C000204670BDF0310020E031002010B50146AA
:1075D0000E48FFF74AFD0446A8B90D480D4A037846
:1075E000D35C63B1043001F0B1FF60B90A490748C8
:1075F000FFF74DFD38B9BDE81040FFF717BF0C305D
:1076000001F06CFDF1E7204610BD00BFF431002011
:10761000E82A00204C3200200532002070B5EFF33C
:10762000108672B60C4A946801239CB993600B4B88
:107630000B4DD3F8801029401160C3F88050D3F867
:10764000841051604FF0FF32C3F88420047006B9F3
:1076500062B670BD0370FAE70832002000E100E076
:10766000FC06FFBD084B9A6810B55AB150B9EFF34C
:10767000108172B6054A1C6814605C68546098609A
:1076800001B962B610BD00BF0832002000E100E081
:10769000435882B03BB10023435043580193019BB0
:1076A000012002B070471846FBE70000F8B5224BF6
:1076B0004679224C43F82620214A224B9B1A04EBA0
:1076C000C602DB0812791B04F70032B143F0020056
:1076D0001D49FFF799F90820F8BD02680D88C2F826
:1076E000085590F9045002798978002DADBF05F155
:1076F000604CDFF85CC002F00F0E0CF5614C4FEAF5
:107700004111C9B2B4BF0CF80E108CF800136D090A
:107710000121DFF840C002F01F0201FA02F24CF82A
:107720002520E21944F83600117143F0030007499F
:10773000FFF76AF90020CFE71C3200201432002046
:1077400058C5020090C5020060C7020082C702004F
:1077500014ED00E000E100E0036801221A607047C8
:10776000036801225A60704773B501F15005AD00FE
:107770000068ADB24FF480348C400026C0F8084356
:10778000C0F84843465101F5A8714559019522F0CA
:107790007F42019D40F82120C0F844430BB1C0F85E
:1077A000044302B070BD00002DE9F74F0D4622F0F2
:1077B0007F4402684FF4803705F150068F408046C1
:1077C000B60002EB8500C2F84873B6B2C2F808737F
:1077D000D2F8041599464FF0000BD0F84035C0F8A8
:1077E000401542F806B05B1A9259009223F07F438D
:1077F000012B009A4FEA850A0CD1264B4FF480608A
:1078000043F001039847D8F8003043F806B09B597D
:107810000193019BD8F80010D1F80465C1F84473B6
:10782000A31B23F07F43012B1CD11A4B05F5A87530
:10783000013443F0010341F825404FF4806098473C
:10784000D8F80030D3F804359E4209D1D8F800307A
:107850000020C3F84473C3F8047303B0BDE8F08F8D
:107860000D20FAE78A44C9F1FF13CAF84045D1F860
:107870000405221A013A22F07F4203F57F43934226
:10788000EED3002AE2D10134CAF84045D1F80435DC
:107890009842DAE7A0C7020003680222C3F8442333
:1078A00009B1C3F80423704700684FF48271FFF7F1
:1078B000EFBE4FF4803303FA01F10368C3F84813B5
:1078C000C3F80813704750318900006889B2FFF788
:1078D000DFBE0368D3F804057047000090F9043058
:1078E00001215A0903F01F0301FA03F34032024950
:1078F00041F82230704700BF00E100E0024B034A2C
:107900001B681068184700BF1C320020143200208A
:1079100010B561B1B2FBF3F403FB1424A4B244B973
:10792000C0E9001484608281C381204610BD0E200E
:10793000FCE70920FAE737B550E8013F9DB2C4895A
:1079400025448489A54228BF2D1B0489A54202BF76
:10795000BFF32F8F002207E0C5EA030540E801547A
:10796000002CE9D14FF001028DF803200193019B17
:107970009DF803200B6002F0FF0322B10B88006822
:10798000184403B030BD1846FBE70A884B889A427A
:1079900009D150E8012FC2EA024240E80123002B3E
:1079A000F7D1012070470020704737B550E8023FFB
:1079B0001FFAA3F5C488A54202BFBFF32F8F002290
:1079C0000DE0C48925448489A54228BF2D1BC3EA44
:1079D000054540E80254002CE8D14FF001028DF833
:1079E00003200193019B9DF803200B6002F0FF032D
:1079F00022B14B880068184403B030BD1846FBE73D
:107A00000A884B889A4209D150E8022FC2EA2242E2
:107A100040E80223002BF7D1012070470020704777
:107A200001F01F024B090121914000EB830000F09F
:107A30001EB801F01F0301229A404B0900EB83009E
:107A4000D14300F02CB84B0901F01F0150F823007E
:107A5000C84000F00100704710B5034653E8000F1E
:107A60000A4643E8002494F0000FF7D110BD10B58A
:107A7000034653E8002F42EA010043E8000494F073
:107A8000000FF6D110BD10B5034653E8000F00EA11
:107A9000010243E8002494F0000FF6D110BD10B5A8
:107AA000034653E8002F02EA010043E8000494F083
:107AB000000FF6D110BD10B5034653E8002F02EBBE
:107AC000010043E8000494F0000FF6D110BD10B59A
:107AD000034653E8002FA2EB010043E8000494F0B2
:107AE000000FF6D110BD0121FFF7C1BF0021FFF744
:107AF000CABF10B590B1D0E9012301689B1ADBB26F
:107B00000A60013BDBB2FF2B026802D1002010713A
:107B100010BD11684C1C14600B70F2E70E20F7E7E3
:107B200037B5054600240DF107008DF80740FFF733
:107B300075FD2A686B68116899420ED9481E10605D
:107B400011F8014CEB68298A01FB0434AB68117908
:107B50001B1ADBB2994238BF13719DF80700FFF77B
:107B600081FD204603B030BD37B5054600230DF139
:107B700007000C468DF80730FFF750FD2A681368A0
:107B8000591C1160E968641A298AB4FBF1F41C706D
:107B90009DF80700FFF766FD03B030BD826810B5A1
:107BA00004462AB143690168006998470023A3602D
:107BB00010BD0EB403B5039921B104AB01AA019322
:107BC00000F076F802B05DF804EB03B070470A29C4
:107BD00038B504460D4602D10D21FFF7F8FFA36822
:107BE0002268591CA160D554D4E901329A4204D3C9
:107BF0002046BDE83840FFF7D1BF38BD2DE9F84F2A
:107C00009846DDE90A43154682460F460A464FF07C
:107C10000109AA420FD2C14538BFC14613F0010B7A
:107C200001D16CB900240126B8F1010F1BD908F16C
:107C3000FF386E43F8E709F10109B2FBF5F2E8E716
:107C40009B070ED5B8F1000F0CBF30262026A145AA
:107C5000E9D2013C31465046FFF7B9FF002CF6D17E
:107C6000E0E72026F3E7B7FBF6F39D42E1D9DFF822
:107C70003C80B7FBF6F3504618F8031006FB137769
:107C8000FFF7A5FF3346AB42B6FBF5F6F1D2BBF1E9
:107C9000000F02D00CB1A14501D3BDE8F88F20211F
:107CA0005046013CFFF793FFF4E700BFA6C7020070
:107CB0002DE9F74F054617468846002900F0428116
:107CC00018F8011B49B92B7B002B00F03B8128469B
:107CD00003B0BDE8F04FFFF761BF252940F0B78042
:107CE000002698F800302D2B424608F1010823D0D9
:107CF000302B24D02B2B25D000242A2B02F101017C
:107D000023D13B681A1D1B683A601C440A4613784D
:107D10002E2B26D101324FF0000A104610F8011B1D
:107D2000A1F1300CBCF1090F1DD80A2303FB0A1383
:107D3000A3F1300A0246F0E746F00106D1E746F02B
:107D40000206CEE746F00406CBE711F8013CA3F1AA
:107D500030000928DBD80A2202FB0434303C0A46F2
:107D6000CBE74FF0000A12F8011B01F0FB00682876
:107D70009046F8D0782909D86F290CD8632962D0A9
:107D800022D8252963D0582900F0888098F800303F
:107D9000002B95D197E770390829F7D801A353F83C
:107DA00021F000BF1F7F02008D7D02008D7D02004B
:107DB000AD7E02008D7D02008B7E02008D7D020073
:107DC0008D7D02009D7E0200642901D06929DDD1EC
:107DD0003A68D2F80090111D89EAE9723960A2EB85
:107DE000E9724FF0010B092A35DCD34538BFD34681
:107DF0002CB1B9F1000F01DB720700D5013CB307CC
:107E000002D5BAF1000F03D0F00701D44CBB002417
:107E1000B9F1000F2DDAC9F100092D212846FFF72D
:107E2000D6FE06F00302022A04D1BAF1000F01D1F6
:107E30001CBB0024CDE9004653460A224946284689
:107E4000FFF7DCFEA2E73B681A1D19783A60284666
:107E5000FFF7BDFE9AE70A230BF1010BB2FBF3F229
:107E6000C1E7A345D4D220212846013CFFF7AFFE4D
:107E7000CCE77107D5D52B21D0E7A345DAD2302145
:107E80002846013CFFF7A3FED2E73968CDE900465A
:107E90000A1D3A6053460A220968D0E739680A1D6C
:107EA0003A60CDE9004653461022F5E73B681A1DBB
:107EB0003A6016F00106D3F8009028D1B9F1000F0E
:107EC00003D0484603F0C1FF0646B44200D904BBC4
:107ED00009F1FF3919F8011F00293FF457AF28466F
:107EE000FFF775FEF6E728460136FFF770FE19F832
:107EF00006100029F7D1A642BFF448AF002C3FF48A
:107F000045AF20212846013CFFF761FEF3E700263C
:107F1000EDE720212846013CFFF759FED5E73B68F5
:107F20001A1D3A60302128461C68FFF750FE782160
:107F30002846FFF74CFE00220823CDE900322146F7
:107F400010227CE703B0BDE8F08F00BF2DE9F84FA9
:107F5000B0F806A04579D2F800B09DF828900AFB49
:107F600005F5043D88460BEB0301A94203F1040427
:107F700088BFA5EB030BB4FBFAF607460AFB1644D1
:107F8000C2F800B04EB9AAEB04055D4528BF5D46B6
:107F9000BBF1000F04D1BDE8F88F3F68013EF1E767
:107FA000043408EB06003C442A46B9F1000F0DD01A
:107FB0002146ABEB050B03F0CAFEDA452E443F68C1
:107FC00055464FF0000428BF5D46E1E701462046D4
:107FD000EFE7FFF78EBDF8B546790146721E0546FC
:107FE000002393422D6803D30024A64202D8F8BD93
:107FF0000133F6E70F682846FFF7B6FD013439462E
:10800000F3E72DE9F843068ACD1C0746FFF788FD04
:10801000043E35440446B5FBF6F5F0B14FF48073E9
:10802000EDB28380C680013D076081464FF00008B5
:10803000A84512D23846FFF773FD064648B163796A
:108040000133637108F10108C9F800000760814637
:10805000EEE72046FFF7BFFF34462046BDE8F88331
:1080600001210430FFF727BD10B50121044604307B
:10807000FFF72DFD10F0FF0F04D12046BDE81040A2
:10808000FFF7A9BF10BD1FB503920022009203AAFB
:10809000FFF75CFF05B05DF804FB1FB503920122FA
:1080A000009203AAFFF752FF05B05DF804FB41DF21
:1080B00070470000064B10B500241C70054B1C6077
:1080C000BFF35F8F0449054800F039F8204610BD22
:1080D000283200202C320020C0C7020020320020AD
:1080E00007B500230DF107008DF80730FFF796FA6A
:1080F000F1EE103A23F09F03E1EE103ABFF35F8FE9
:10810000094B4022C3F884219DF80700FFF7AAFA23
:1081100003F066FB20B1FFF7CAFF03B05DF804FB74
:1081200020BF40BF20BFF8E700E100E083680022E5
:108130005A60C3E904229A60DA601A6070470B68DB
:108140004A684360934208BF0023016008BF436050
:108150007047436843B10268916852680B44934288
:10816000436004BF00234360704770B5446806460F
:108170000D46206818B1B3682946984718B9236896
:108180002B60256070BD2468F3E74368186808B168
:1081900002681A6070474368186870474368186837
:1081A00000B97047884203D102681A600120704705
:1081B00003460068F4E7000010B50D49A1F594727C
:1081C000914201D800200FE08C1AE30F03EBE40387
:1081D0005B1002EBC30452F83330834205D802D25D
:1081E00004F10802ECE7606810BD2146E8E700BF33
:1081F000CCCC020008B5FFF7DFFF024B002808BF18
:10820000184608BD8FCB020010B50446C0B2FFF778
:10821000DDF9204610BD00000C4B1B78062B10D159
:108220000B4B1B681A070CD10A4B186800F0F003BF
:10823000302B08D000F0E000A0F140035842584134
:108240007047002070470120704700BFE00F00F02A
:10825000E40F00F0E80F00F0094B1B78062B0CD15F
:10826000084B1B681A0708D1074B186800F0F0008C
:10827000A0F130035842584170470020704700BFBA
:10828000E00F00F0E40F00F0E80F00F008B5FFF792
:10829000C3FF28B17D4B7E4A1B68C3F304231360E0
:1082A000FFF7DAFF10B17B4B7B4A1A60FFF7B4FF90
:1082B00028B17A4B7A4A1B68C3F342331360FFF745
:1082C000CBFF20B1774AD36823F08073D360FFF7E8
:1082D000A3FF40B14FF080430022C3F80C21C3F844
:1082E0001021C3F83825FFF7B7FF10B16E4B0322FA
:1082F0001A60FFF7B1FF40B16C4B05221A600122F2
:108300009A6700229A603F225A60694B1B78062BBD
:1083100050D1684B1B6819074CD1674B1B6803F0A1
:10832000F003502B46D14FF08052644BD2F8041426
:10833000C3F82015D2F80814C3F82415D2F80C1489
:10834000C3F82815D2F81014C3F82C15D2F8141459
:10835000C3F83015D2F81814C3F83415D2F81C1429
:10836000C3F84015D2F82014C3F84415D2F82414E9
:10837000C3F84815D2F82814C3F84C15D2F82C14B9
:10838000C3F85015D2F83014C3F85415D2F8341489
:10839000C3F86015D2F83814C3F86415D2F83C1449
:1083A000C3F86815D2F84014C3F86C15D2F8442409
:1083B000C3F87025FFF730FF28B1414B414A1B68D5
:1083C00003F04F031360FFF727FF48B14FF08043DE
:1083D000D3F80024D20744BF6FF00102C3F8002491
:1083E000394B1B68062B08D1384B1B68062B01BF85
:1083F000374A136843F480631360364AD2F88830F2
:1084000043F47003C2F88830BFF34F8FBFF36F8F10
:108410004FF01023D3F80022002A03DBD3F80432F4
:10842000002B2FDA2C4B0122C3F80425D3F80024AB
:10843000002AFBD04FF010221521C2F80012D3F809
:108440000024002AFBD04FF010231522C3F8042289
:10845000214B1A46D3F800140029FBD00021C3F8A1
:108460000415D2F80034002BFBD0BFF34F8F19490D
:108470001A4BCA6802F4E0621343CB60BFF34F8F1C
:1084800000BFFDE7164B174A1A6008BD2403001011
:108490004035014074C007400DF0ADBA44020010F1
:1084A0003C050040F0ED00E0A00500401056004003
:1084B000E00F00F0E40F00F0E80F00F000C0004013
:1084C00058020010E40E004030010010340100108A
:1084D0003C17004000ED00E000E001400400FA0518
:1084E000FC2A00200090D003054A4FF0A043105C06
:1084F000D3F8043523FA00F0C04300F001007047C0
:10850000D0CC0200044B1A5C012393404FF0A042F0
:10851000C2F80C35704700BFD0CC0200044B1A5C87
:10852000012393404FF0A042C2F80835704700BFC6
:10853000D0CC020008B50020FFF7F0FF0120FFF7C4
:10854000EDFF0220FFF7EAFFBDE808400320FFF738
:10855000E5BF08B50020FFF7D5FF0120FFF7D2FFE8
:108560000220FFF7CFFFBDE808400320FFF7CABF96
:10857000074A4FF0A041105CD1F804350122824037
:1085800022EA03001340C1F80805C1F80C35704712
:10859000D0CC0200054A4FF0A043105CD3F8103550
:1085A00023FA00F0C04300F001007047CCCC020079
:1085B0000D2809D00E2809D00F2809D010280CBF8B
:1085C00003204FF0FF3070470020704701207047B4
:1085D00002207047014B185C704700BFCCCC0200F2
:1085E000C20708B501460CD54FF0A0430322C3F8DB
:1085F0004427C3F84827C3F84C27C3F85027FFF790
:1086000099FF8B070AD54FF0A0430C22C3F83427FB
:10861000C3F83827C3F83C27C3F8402708BD00003B
:1086200038B5074C051E04F1080318BF1C46236823
:108630002BB11A6822605B6828469847F7E738BD77
:108640003832002020B9054B01225A70FFF7E8BFED
:10865000012802D1014A9070F8E7704730320020BB
:1086600020B9034B01225A70FFF7DABF704700BFF1
:108670003032002038B50B4C237883B90A48636048
:10868000A3602361E36000F0C9F8054603F0A8F891
:1086900008B900F0CFF801232370284638BD85259E
:1086A000FBE700BF303200204586020037B50B4C97
:1086B00000230DF107008DF80730FEF7AFFFE368E8
:1086C000013BE360E56815B900F0C6F8A5709DF8B8
:1086D0000700FEF7C7FF03B030BD00BF30320020F7
:1086E000012813B508D003281CD018B9104B01225B
:1086F000C3F8802002B010BD0E4C00230DF107001E
:108700008DF80730FEF78AFF23780BB9FFF7B2FF29
:10871000E3689DF807000133E3600123A370FEF7CF
:10872000A1FFE7E700F086F8FFF7C0FFE2E700BF30
:1087300000E100E0303200201FB503788DF80030F2
:108740004368019383688DF80830C368054A039332
:10875000054B684653F8213052F82110984705B070
:108760005DF804FB44320020483200201FB5037836
:108770008DF800304368019383688DF80830C36832
:10878000054A0393054B684653F8213052F82110EF
:10879000984705B05DF804FB4432002048320020C1
:1087A000F0B5194B90F800C091F81DE043F82C206B
:1087B000164B16460A6943F82C20154B03F80CE0BB
:1087C0000C4607460FCC89B06D460FC594E80F00E4
:1087D00085E80F00CDF810C0BEF1000F09D0002EC3
:1087E0000C4A694608BF3246381D00F09FFD09B0AB
:1087F000F0BD002E084A694608BF324607F10C005A
:1088000000F06AFBF3E700BF48320020443200204A
:108810004C320020398702006D870200044A137928
:1088200023B9012110609180184670478520704758
:1088300050320020074B1A68D2075FBFC02283F86E
:10884000002301221A604FF080430122C3F818254B
:10885000704700BF00E100E0044B01221A604FF0B6
:108860008042D2F81834DB03FBD470470C00004080
:10887000154B07B51A687AB100221A601B6800937D
:10888000009B4FF080430122C3F808230F4B587917
:1088900010B95A711B6898470D4B1A6882B10022B3
:1088A0001A601B680193019B4FF080430222C3F8BA
:1088B0000823064B1B68012003B05DF804EB184742
:1088C00003B05DF804FB00BF0001004050320020FF
:1088D0000401004000F1804000F5C040002382B058
:1088E000036003680193019B02B07047800000F1B0
:1088F000A040D0F8002722F44032C0F80027D0F87A
:10890000003743EA0141C0F800177047054B4FF0AC
:10891000FF32072843F8202084BFC01880F8482081
:10892000704700BF5832002010B5174C94F85830EB
:1089300043BB04F130032021FF22013911F0FF0174
:1089400003F8012BF9D1C8B2FFF7E0FF01310C2980
:10895000F9D1042200210D4803F022FA0C4BC02269
:1089600083F8062340221A604FF4BE70FFF7B2FF6F
:10897000084B4FF00042C3F80423012384F8583019
:10898000002010BD0820FCE758320020AC32002047
:1089900000E100E000600040034B93F8580000380D
:1089A00018BF0120704700BF58320020F0B5364D87
:1089B0002C1894F93040002C64DA8C78C4F340040D
:1089C000002C0BBF082300230C260826B34201D13C
:1089D0000420F0BD55F8237001373FD12E1845F81B
:1089E000232086F8303014B9EA1882F848008A78D3
:1089F000540713D4D60733D5820002F1A042D2F82F
:108A0000004724F00204C2F80047204EC20800F0DC
:108A100007070124BC40B75C3C43B4548A780C7807
:108A200012F0020225D09B0003F1804303F5C043FE
:108A30000202D3F8101521F4473121F44071C3F834
:108A400010152404D3F8101502F4F85204F440343D
:108A500022430A43C3F810250020BAE70133B5E7E3
:108A60004C7800F5E0724FF0A046A40046F8224092
:108A7000CBE7083B2B4493F8501041EA841483F869
:108A80005040E9E70820A4E758320020AC3200202B
:108A900038B51F4C251895F93020072A16DD2244D9
:108AA00092F848309B09032B0BD14FF0A043D3F829
:108AB0001015C14001F001010231BDE83840FFF757
:108AC00015BF012B0CBF02210321F6E7D3B2072B00
:108AD0001CD8930003F1804303F5C043D3F810057D
:108AE00040F00100C3F8100502F14000800080B2A0
:108AF000FFF7F0FE51B195F9303054F823302BB127
:108B0000012303FA02F2034BC3F8042338BD00BF6C
:108B100058320020006000404FF0A043D3F81035D9
:108B200023FA00F000F00100704700002DE9F04F3B
:108B300087B000245A4D03944FF48072012102F152
:108B4000804303F5C04390B21B68012B06D1D5F8D2
:108B500004330B4202D0FFF7BDFE0C430432B2F5E2
:108B6000907F4FEA4101EAD14E4B1B68012B0AD19D
:108B70004FF4BE70FFF7AEFE4FF0A04344F0004448
:108B8000D3F81035039314F0FF0F1AD0464F002589
:108B90000126344210D0AB0003F1804303F5C043FB
:108BA000D3F81005D3F8101557F8253023B1C1F3C9
:108BB0000141C0F3042098470135082D4FEA4606CD
:108BC000E7D1002C65DA00214FF0FF33CDE9041323
:108BD000354D01274FF0000A344ED1464FF0A048E2
:108BE00016F9013B5A1C45D0C3F3C20106AA50181E
:108BF000DCB210F8042C03F03F0B03F0070307FA74
:108C000003F31A4236D005EB0B02A40992F9302087
:108C100055F8222052B9032C2CD10DF1100E1EF85C
:108C200001C04CEA030C0EF801C001E0032CF4D0A3
:108C30000BF5E07110F80C0C58F821101842C1F334
:108C4000014105D0022915D1032C0FD1214604E0A2
:108C500003290FD1032C09D102215846019209F1B1
:108C60000109FFF743FE019A5FFA89F912B1214623
:108C7000584690470AF1010ABAF1040FB0D1B9F190
:108C8000000F06D04FF0A043039AD3F8103593425B
:108C900002D107B0BDE8F08F0393049B059399E7D9
:108CA000006000407C61004058320020A832002063
:108CB000014B1B68184700BFB43200200E4B98428E
:108CC00037B50C4602D0002003B030BD00230DF1B3
:108CD00007008DF80730FEF7A1FC084B1D7915B988
:108CE00001221C601A719DF80700FEF7BBFC002DE5
:108CF000E9D01120E8E700BF00200040B432002096
:108D00000023435082B043580193019B02B0704747
:108D10000A4610B54FF48E71FFF7F2FF136A91689F
:108D2000C95C136A01331362C0F81C1510BD0246FA
:108D300008B500684FF49271FFF7E2FF4FF48471B9
:108D40001068FFF7DDFF136801221A6008BD8B6908
:108D50000A4610B54FF4847123B9FFF7D1FFD0F85C
:108D6000183510BDFFF7CCFF536AD168D0F818054D
:108D7000C854536A01335362F3E700001FB501235F
:108D80008DF80030044BCDE90110D3E9001268469C
:108D9000904705B05DF804FBBC32002030B54C486C
:108DA000D0F8043313F4007F85B005464DD0D0F8D9
:108DB0002431002B49D04FF49271FFF7A1FF4FF4FB
:108DC0000173C0F80833434B93F829200AB90122F4
:108DD00042603F4902228DF80020D1F88024C1F87A
:108DE000802403929A690292DA6801920022C3E910
:108DF00006226846D3E9001290473548D0F81C3166
:108E00005BB134494A690B6A9A420A464AD991F8D9
:108E10002830002B46D1FFF77BFF2D48D0F8443196
:108E20008BB14FF4A271FFF76BFF2A4B93F8292007
:108E30000AB1012202609A692AB10022586AD968EF
:108E40009A61FFF79BFF05B030BDD5F804335B078F
:108E5000D3D5D5F80831002BCFD01E4C1C48214665
:108E6000FFF775FF636AA2699A422346C5D1E2699A
:108E7000E1684AB12369E3600023606AA261E361AB
:108E80006362FFF77BFFB8E794F829200AB9012253
:108E90006A600F4A4FF40170C2F808030022586A52
:108EA0009A61EEE70A484FF48E71FFF729FF536984
:108EB000002BB2D051690291002391688DF80030E7
:108EC000019153616846D2E900139847A5E700BFB6
:108ED00000200040BC3200202DE9F843574B0579B3
:108EE00091462C2202FB0532064692F82A200C46B7
:108EF0009846002A40F09D8051490068FFF7DEFE49
:108F00000746002840F0978021683368481C0BD042
:108F10004FF0A04001228A40C0F8082501F5E07218
:108F20004FF0030C40F822C06068421C1FBF00F5E0
:108F3000E0724FF0A04C4FF0000E4CF822E0A26916
:108F4000C3F8242594F814C0627DBCF1010F4CEAEB
:108F50000202C3F86C25C3F81405C3F80C151DD123
:108F6000A1684A1C1FBF01F5E0724FF0A0404FF00E
:108F7000000C40F822C0E268501C0BD04FF0A04C0F
:108F800001209040CCF8080502F5E0704FF0030E88
:108F90004CF820E0C3F80825C3F810152C236B43C8
:108FA00008EB0302C2F80490226948F80320B9F1E3
:108FB000000F2BD03068247F4FF48E71FFF7A0FE96
:108FC00030684FF4A271FFF79BFE32681D4BC2F868
:108FD0000433110B42F30732002AA8BF02F16040AC
:108FE0004FEA4413BABF184801F00F0400F561407E
:108FF000DBB2B4BF035580F8003301F01F01012339
:1090000003FA01F15209114B43F82210336804228C
:10901000C3F800252C2303FB05830022C3E90622A5
:1090200083F829205A61012283F82A203846BDE8B6
:10903000F8830827FAE71127F8E700BFBC320020C1
:109040009D8D02008000020014ED00E000E100E0D0
:109050002DE9F047204F90F804904FF02C0808FBC2
:10906000097405466669002E34D162610068A1600A
:1090700026624FF48E7184F82860FFF741FE28685D
:10908000012383602146FFF743FE6368A0468BB946
:109090002868D4F814A0236A9A4511D82A68D2F80F
:1090A0001C31002BFBD00123D3602C2303FB09735D
:1090B00000225A613046BDE8F08794F828303BB969
:1090C000D0F81C31002BF8D04146FFF721FEE2E733
:1090D0000F26EAE71126EDE7BC3200200379044AA7
:1090E0002C2101FB03235869003818BF0120704769
:1090F000BC3200202DE9F843394F05792C2303FBBE
:10910000057306465C6824B103684FF40170C3F828
:1091100008032C2303FB0573986950B1D869002814
:109120003ED024B133684FF40172C3F804231124F4
:1091300033E09A61D9605862D8612C2303FB057330
:1091400093F829301BB910B93046FFF7F0FD4FF006
:109150002C0909FB05783068D8F80430002B34D18D
:109160004FF4A271C146FFF7CBFD3068D0F824312F
:10917000D0F80821D0F84441B2B90CB9002BF4D092
:109180002C2202FB05750022AA6123BB2CBB95F89B
:10919000291033680122B1B11A602046BDE8F88376
:1091A0001961DA610120C8E7002BE9D1002CE7D171
:1091B0004946FFF7CCFDD8F82430D8F818209A4259
:1091C000D3D82346DCE75A60E7E74FF40173C0F8D1
:1091D00004330024E1E70324DFE70F24DDE700BFC9
:1091E000BC3200200023435082B043580193019BBE
:1091F00002B070471FB501238DF80030044BCDE954
:109200000110D3E900126846904705B05DF804FBF1
:10921000E83200207FB5434AD2F82461002E60D0A6
:1092200010464FF49271FFF7DDFF02238DF80030F6
:10923000D2F88034C2F880340393D2F83C350293DC
:10924000394BDA6801920022C3E906226846D3E965
:10925000001290473348D0F8443173B14FF4A271F3
:10926000FFF7C0FF304B9A693AB10022C3E90622EA
:10927000D968D0F83C05FFF7BDFF2A48D0F8203167
:10928000ABB14FF49071FFF7ADFF0123C360264BE4
:109290005A6962B1D0F84C150291002299688DF894
:1092A000002001915A616846D3E9001290471D4899
:1092B000D0F858319BB14FF4AC71FFF793FF1A4BC4
:1092C0005A6962B1D0F84C150291002299688DF864
:1092D000002001915A616846D3E90012904704B01A
:1092E00070BDD2F81031002BB4D04FF48871104605
:1092F000FFF778FF0C4BD2F83C0599698842A9D159
:10930000DC69D96864B1D2F8005225F02005C2F8B2
:1093100000521A699C61DA60DE61FFF76BFF99E722
:109320009C61FAE700200040E83200202DE9F84374
:109330005D4B06799146242202FB0632044692F8E0
:1093400020200D469846002A40F0AA805749006820
:10935000FFF7B4FC0746002840F0A4802968236882
:10936000481C0BD04FF0A04001228A40C0F80825CD
:1093700001F5E0724FF0030C40F822C06868421C0F
:109380001FBF00F5E0724FF0A04C4FF0000E4CF8FC
:1093900022E0AA69C3F8242595F814C06A7DBCF1BF
:1093A000010F4CEA0202C3F86C25C3F80C15C3F890
:1093B00014051DD1A9684A1C1FBF01F5E0724FF0CA
:1093C000A0404FF0000C40F822C0EA68501C0BD0BF
:1093D0004FF0A04C01209040CCF8080502F5E07059
:1093E0004FF0030E4CF820E0C3F80825C3F8101521
:1093F0002423734308EB0302C2F804902A6948F857
:109400000320B9F1000F3AD020682A7F4FF4887109
:10941000FFF7E8FE20684FF49071FFF7E3FE206845
:109420004FF49271FFF7DEFE20684FF4A271FFF750
:10943000D9FE20684FF4AC71FFF7D4FE23681C49B5
:10944000C3F80413190B43F30733002BAEBF03F12A
:10945000604001F00F0517484FEA4212A8BF00F51F
:109460006140D2B2B4BF425580F8002301F01F0121
:10947000012202FA01F15B090F4A42F82310236826
:109480000822C3F80025242303FB06830022C3E936
:1094900006225A61012283F820203846BDE8F8836D
:1094A0000827FAE71127F8E7E832002015920200B2
:1094B0001003420014ED00E000E100E001F0604321
:1094C000B3F1005F2DE9F041064638D11E4B077914
:1094D000242505FB073598466C69002C31D16A615B
:1094E0000068A9604FF49071FFF77CFE4FF4AC71F7
:1094F0003068FFF777FE33686A69A968C3F84415D6
:10950000C3F8482501229A606A68AAB9D3F82021D5
:10951000D3F858411AB9002CF8D00F2407E0002CDA
:10952000FBD10122DA60D3F85821002AFBD0242392
:1095300003FB078700237B612046BDE8F0811024F0
:10954000FAE71124F8E700BFE83200200379044A63
:10955000242101FB03235869003818BF01207047FC
:10956000E8320020F8B501F06043B3F1005F044633
:109570000F465ED10379304D242101FB0351496828
:1095800021B100684FF40476C0F80863242000FB82
:1095900003539E6956B1D869002839D021B1236898
:1095A0004FF40472C3F80423112030E09A61DF60A5
:1095B000DE6120684FF48871FFF714FE20684FF4D5
:1095C000A271FFF70FFE2368C3F83475C3F838257E
:1095D00016BB01221A602179242202FB0152526833
:1095E0000ABBD3F81041D3F84421D3F82401144323
:1095F00002D10028F5D02246242303FB0155002385
:10960000984218BF03209A42AB6118BF0F20F8BDE3
:109610001F61DA610126CCE7D3F8002242F0200274
:10962000C3F80022D7E74FF40472C3F804230020E4
:10963000EDE71020EBE700BFE83200200220FEF744
:1096400097BF00002DE9F04780460D46FEF7B0FFBA
:109650000328044610D8012D10D0022D30D05DB95A
:109660001A48FDF7F6FD1A4B04EB440213449E78AA
:10967000184B1B5DB34219D0BDE8F087144D00EBC9
:109680004002A918AE5C4A78470052B1DFF84C900E
:109690000E484A464FF48041FDF7C3FD08B989F8EA
:1096A00000803B192B449A780A4B1A55002EE3D0C0
:1096B000094B1B68002BDFD03046BDE8F047184748
:1096C00000EB4004024804446678EFE730330020A2
:1096D0007033002089330020843300200C330020B5
:1096E00000780221FFF7AEBF08B5094B1B7853B1D4
:1096F0000020FEF713FF0120FEF710FFBDE8084031
:109700000320FEF70BBFBDE80840FEF713BF00BF04
:109710000D330020F8B57B4C237805461BB10023A0
:109720002370FFF7E1FF172D00F28880DFE805F0D6
:109730000C17174354657680888D888D959A9A9A70
:109740009A9AC4C9D1D9E4E4FFF7CEFF6E48FDF779
:1097500080FD6E4B002204461A702046F8BD0020A2
:10976000FEF7C2FEF8B10020FEF7D8FE022D0CBFB6
:109770004FF4E1614FF47A61644B1D704FF4004087
:109780004FF47A740025E0FB01454FF4FA620023A0
:109790002046294602F0B0F900220146BDE8F84013
:1097A0005948FDF73EBDFEF7ADFE022D0CBFC821A6
:1097B0004FF4C871E0E70020FEF796FE40B10020AC
:1097C000FEF7ACFE4FF44871504B03221A70D5E7F8
:1097D000FEF798FEC821F7E70020FEF785FE38B1B6
:1097E0000020FEF79BFE4FF47A61484B0422EDE720
:1097F000FEF788FE4FF4C871F7E70020FEF774FE0D
:1098000048B10020FEF78AFE404B05221A7040F650
:10981000CD410022C2E7FEF775FEF5E70020FEF716
:10982000A7FE3A4B06221A70002240F26661B5E7A5
:109830000020FEF767FE354B07221A7000248CE7E4
:1098400001202070FEF794FEEEE701202070FEF765
:109850008FFE00224FF40051A0E7FEF77AFE2B4B5B
:109860000C22EAE72A482B4EFDF7F3FCD5F111054F
:1098700004461CD0D8B9012D13D0C8235D434FF442
:1098800000474FF47A7000214FF4FA620023C7FBBF
:10989000050102F031F9224601461D48FDF7C1FCE1
:1098A00004460220FEF72EFE0123337055E7022006
:1098B000FEF734FE0023F8E7FFF716FF134B1222E2
:1098C000BBE7FFF711FF0020FEF71CFE0F4B132232
:1098D000B3E7FFF709FF0120FEF714FE0B4B14223C
:1098E000ABE7FFF701FF0020FEF70CFE0120FEF7BB
:1098F00009FE064B1522A0E7FEF72BFE034B1D7059
:109900009CE700BF803300205033002088330020C4
:10991000103300200D330020044B1B68DB0703D5F8
:10992000034B1878FFF7F6BE704700BF7C3300206A
:1099300088330020032801D8FEF72CBE0020704792
:10994000044B1B6813F0010301D0FFF7E3BE184678
:10995000704700BF7C33002038B51C4B18601C4B8F
:1099600010F00204054619601AD01A4B1A480E224C
:109970001A700F22DA7010229A7111225A72042181
:1099800040F23332FDF7B0FA044648B9FDF702FB66
:10999000044628B90146114A1148FDF737FC044630
:1099A000EB0711D50120FEF71BFE6CB921460D4ACD
:1099B0000D48FDF72BFC044630B9BDE838400B4A92
:1099C0000B480121FDF722BC204638BD7C33002026
:1099D0008433002070330020F4CC0200E1960200B2
:1099E00018CD0200199902001CCD02003D9602001C
:1099F00014CD0200032811D8012A0AD101290FD160
:109A000000F10E02D2B20D4B00EB40001A540020C0
:109A100070470129F7D0022904D049B107207047C7
:109A20000022F8E7054B00EB400018444270EEE7D7
:109A3000024B00EB400018448270E8E770330020CE
:109A4000032808B512D8FEF7C5FD800000F1A0403C
:109A5000D0F8003723F44033C0F80037D0F800378F
:109A600043F44033C0F80037002008BD0620FCE76F
:109A700008B5012202210020FFF7BCFF08B107282A
:109A800010D1072202210120FFF7B4FF08B10728F7
:109A900008D100210A220846FFF7ACFF10B10728C1
:109AA00008BF002008BD00000388102B10B502D0AD
:109AB000112B1ED010BD1A4C2168B1B901220846E5
:109AC000FFF798FF08B1072824D1072202210120BF
:109AD000FFF790FF08B107281CD1042202210020C3
:109AE000FFF788FF08B1072814D1236801332360EA
:109AF000E0E70B4A1368013B1360002BDAD1FFF754
:109B0000B7FF0028D6D0074B1B68002BD2D0BDE88A
:109B100010401847034B1B68002BE6D09847E4E73A
:109B2000943300209033002008B50020FFF788FF11
:109B300008B1062806D10120FFF782FF10B10628E0
:109B400008BF002008BD00000D4B10B518600C4682
:109B500029B10120FFF7EEFE40B102232370094B2B
:109B60001B6853B9BDE81040FFF782BFFFF7E2FE64
:109B700008B10B23F2E72070F1E7002010BD00BF11
:109B8000903300209433002076DF70477ADF7047EF
:109B90007CDF70477FDF70478FDF7047B1DF704732
:109BA00033DF7047FDF70CBA08B50020FFF7C8FE99
:109BB00008B1FDF705FAFFF7B7FF08B1FDF700FAA6
:109BC000FFF7EEFF18B1BDE80840FDF7F9B908BD91
:109BD0000388212B13B504463DD007D8112B2BD079
:109BE000132B40D0102B0CD002B010BD522B42D002
:109BF000562B01D03B2BF7D1A0881321FFF7C4FFD0
:109C000015E0214B21482249C01AC008000440F049
:109C10000300FCF7F9FE0720FFF792FE08B1FDF7FD
:109C2000CFF91C4BA1881C48198001F0A7FB002824
:109C3000DAD0FDF7C5F9D7E7134B14481749C01A16
:109C4000C008000440F00300FCF7DEFE114B4FF6A5
:109C5000FF721A80C8E7002301A98088ADF804309C
:109C6000FFF79AFFE3E70B4800231A468521008897
:109C7000FFF790FFDBE7074800231A4619460088E4
:109C8000FFF78CFFD3E700BF58C5020080C5020074
:109C900020CD0200062B0020DC3800202ACD020057
:109CA0000D4B4A881B889A4214D10A8840F67723C4
:109CB0009A420FD18B88094A09480A49033B9BB253
:109CC0001380094A801AC00800041A4640F00300B5
:109CD000FCF7A7BE704700BF062B0020042B002016
:109CE00080C5020037CD020058C5020008B50378D0
:109CF0004BB9054B3B211888FFF746FF18B1BDE86B
:109D00000840FDF75DB908BD062B0020072808B5FF
:109D100013D00A280DD0042819D10D4B132118880F
:109D2000FFF732FF30F0080311D0BDE80840FDF71F
:109D300047B9BDE80840FFF737BF054B1A884FF613
:109D4000FF739A4203D1034800F0CAFEEAE708BD58
:109D5000062B00209034002008B548B103280BD111
:109D60000220FFF7EDFD38B1BDE80840FDF728B946
:109D7000BDE80840FFF718BF08BD0000F7B503783D
:109D8000012B33D0022B31D073BB1A4C1A4D2078E3
:109D90002844FDF705FC23780133DBB21D44237012
:109DA00015F8012C0A2A05D00D2A03D0134A12886F
:109DB0009A4219D8012B15D9114D0F4E114F237806
:109DC000ADF806300DF106022B883146384601F019
:109DD0004BFC082806D01328F1D0052802D008B182
:109DE000FDF7EEF80023237003B0F0BD4068FDF7E7
:109DF000E7F8F9E78C34002098330020042B00208A
:109E0000062B0020082B00202DE9F041057806469E
:109E100045BB154C154BDFF85880E41AE4082404C0
:109E200044F00104B28A95420AD33369134413F80B
:109E3000013C0D2B16D10A20FDF7C8FB1128F9E7CC
:109E40003369585DFDF7C2FB074648B11128F7D0CA
:109E5000024641462046FCF7DBFD3846FDF7B0F8E8
:109E60000135DFE7BDE8F08180C5020058C502007A
:109E700053CD0200FDF7A4B808B50849084801F021
:109E800069F908B1FDF79CF80548F72101F076F96A
:109E900018B1BDE80840FDF793B808BDA19C0200C9
:109EA000C438002000B5734D0FCDB1B005AC0FC460
:109EB00095E80300704B714A01934FF4807384E876
:109EC0000300CDE9032302936D4A072301A905A8E6
:109ED000FDF70EFB08B1FDF773F84FF48041002049
:109EE000FCF7DCFB08B1FDF76BF8FCF70DFBFDF7A9
:109EF0005BF908B1FDF764F862490320FFF72CFD18
:109F000008B1FDF75DF805A90020FFF71DFE08B1B7
:109F1000FDF756F8FEF7CEF808B1FDF751F801F05D
:109F200021FC08B1FDF74CF8002305A90120059399
:109F300001F0A6FC08B1FDF743F805A801F070FD9B
:109F400008B1FDF73DF811234F488DF8043001F0BA
:109F50007CFF4D4982B201A8FFF71AFE08B1FDF758
:109F60002FF80021082205A801F01AFF47494FF0F9
:109F7000C87305A8CDE90513FFF708FE08B1FDF782
:109F80001FF8FFF779FF424B4248059305A901F0FE
:109F9000E3F908B1FDF714F8042200210DEB0200EB
:109FA00001F0FEFE3C4B3D48019301A901F0E2FAAD
:109FB00008B1FDF705F8AC22002105A801F0F0FE7C
:109FC00002238DF814304FF4A063354AADF81630F3
:109FD0000123ADF8603019928DF89030402244F2A0
:109FE0005063CDE927232F482F4B2E9305A900F06E
:109FF000B7FB08B1FCF7E4FF2A48012100F0ADFBF4
:10A000001C22002105A801F0CBFE00234FF4A03252
:10A01000CDE90532ADF822304FF4F0228DF824302E
:10A02000224B07920A930322214B8DF8202005A88A
:10A030000B9300F071FE08B1FCF7C2FF1D4801F060
:10A0400055FE1D4B1D481E49C01AC008000440F0B3
:10A050000300FCF7D9FC1348032100F000FC08B111
:10A06000FCF7AEFFFCF774FB0028FBD1FEF738F8D5
:10A07000F8E700BFC8CD0200E8380020E83900202A
:10A080007D9D02000D9D02007ECD020010003C006F
:10A09000A59B0200DC380020099E0200082B00204E
:10A0A000002B002090340020599D0200ED9C0200FE
:10A0B000759E02008ACD020058C5020080C50200CC
:10A0C0009CCD02000369C1688B429DBF8268D21893
:10A0D00002F1FF3203F1FF3394BF501A581A704750
:10A0E0002DE9F843D0E902940546A9EB040840683D
:10A0F000904520440F46144404D901F028FEEC603A
:10A10000BDE8F8834246A4EB090401F020FE68682C
:10A11000224607EB0801F0E72DE9F843C56806463B
:10A12000894617464FF000083469B3687068A54245
:10A1300028BFE418013C621B5C1BBC4228BF3C46A4
:10A14000944228BF144649462844224601F0FFFDA8
:10A15000B3682544AB4208BF00253F1BA044A1447F
:10A16000F560E1D14046BDE8F883000010B5114C20
:10A17000114AA2610223C4E90433104BE361A264D3
:10A180004FF400730E4A0F492362E2640023102249
:10A19000E01DA3626362E362A3656365E365226514
:10A1A00001F031FE0849204601F02DFE2023A37165
:10A1B00010BD00BFE83A0020E0CD0200703B002057
:10A1C000603B0020E9CD0200EDCD0200F8B5184C4F
:10A1D000182300FB033503FB00402544C46A012C0F
:10A1E0000F4616460FD0022C1AD0F4B92846FFF7B6
:10A1F00069FF864205D8324639462846FFF770FF88
:10A2000034462046F8BD2846FFF75CFF86423446B8
:10A2100028BF0446224639462846FFF761FFF0E78B
:10A220002846BDE8F840FFF777BF0024E9E700BF04
:10A23000E83A0020FFF79ABF6DDF704779DF70477B
:10A240007DDF704764DF70472DE9F04F85B0002552
:10A250000E9CBDF83CB0B4F800A0019107469046B2
:10A260001E46A9463A884A450DDC45B12388013B84
:10A27000A3EB0A039BB2FF2B3AD806F80A30002062
:10A2800005B0BDE8F08F7A6852F8290003900022EB
:10A290000DF10B0103A8FFF7D5FF0028F0D19DF8C1
:10A2A0000B20424521D12288002D14BF002002201E
:10A2B00002EB0801014459451ADC3DB9013292B262
:10A2C000019B2280B35422880132228022880DF122
:10A2D0000B01324403A8FFF7B5FF0028D0D1218835
:10A2E0009DF80B200A442280012509F10109B9E7F4
:10A2F0000C20C5E72DE9F341089FBDF824801546E1
:10A30000CDE90078022204461E46FFF79DFF50B9B2
:10A310003346102229462046CDE9087802B0BDE830
:10A32000F041FFF791BF02B0BDE8F0812DE9F04F99
:10A3300000231788138090F82D3085B006460D460F
:10A34000144653B3082F01D80C2027E102A8FFF7C9
:10A3500073FF002840F0228123880822EA542388D2
:10A3600001339BB21B222380EA542088013080B243
:10A37000208006220DF10901284401F0E8FC238821
:10A380009DF8082006339BB212F0FE0218BF01228E
:10A390002380EA54238801332380B378FBB12388D8
:10A3A0000433BB42D0D802A8FFF748FF002840F092
:10A3B000F58023880322EA54238801339BB21922B3
:10A3C0002380EA542388BDF8082001339BB2E918A2
:10A3D0002380EA54120A4A70238802332380F278D9
:10A3E0009AB12388D91CB942AED80221E9542388F6
:10A3F00001339BB201212380E95423880B449BB293
:10A400002380EA5423880B4423807268AAB12388EE
:10A41000D91CB94298D8022192F90020E954238826
:10A4200001339BB20A212380E954238801339BB274
:10A430002380EA542388013323803389002B40F0A2
:10A44000A180338A5BB1CDE900472B460722032167
:10A4500006F11000FFF74EFF002840F09F80338B7D
:10A460005BB1CDE900472B461522142106F11800F7
:10A47000FFF740FF002840F09180326A002A40F048
:10A480009080D6F82480B8F1000F30D0B8F80430AE
:10A490002188981C8A1C0244BA423FF655AFFE2818
:10A4A0003FF652AF03336B54238801339BB2FF2234
:10A4B0002380EA54238801339BB22380B8F800201C
:10A4C000EA54E918120A4A702088023080B22080CB
:10A4D000B8F804205AB1D8F8081000296BD02844E5
:10A4E00001F035FC2388B8F804201344238096F843
:10A4F0002C30002B40F09A80307800284ED03388E2
:10A50000012B58D0228802F1020CBC453FF61CAF4B
:10A51000012805D17378023313449F42FFF414AF2E
:10A52000023FBF1ABFB202A905EB0C00ADF80870DC
:10A53000FFF786FE90BB3178BDF80830022900F0A5
:10A54000BA8072789A4202D3BB4240F2B2800129AB
:10A5500040F0B380974293B2C0F0AF80ADF80830BE
:10A560000821BDF80830FE2B3FF6EEAE22880133FD
:10A57000AB542288013292B22280A954228813441B
:10A5800023800BE0CDE900472B460622022106F18D
:10A590000800FFF7AFFE00283FF453AF05B0BDE859
:10A5A000F08FB4F800C00CF10603BB423FF6CCAE0E
:10A5B0001188052901D80720F0E76FF4486E01EBF8
:10A5C0000E039BB24FF27D3E7345F4D95388052BA1
:10A5D000F1D96FF44860181880B27045EBD94FF686
:10A5E000FF70814203D0834201D09942E3D8052312
:10A5F00005F80C30238801339BB212212380E954E3
:10A60000238801339BB223801188E954E818090A92
:10A610004170238802339BB223805288EA54E918A0
:10A62000120A4A702388023323802AE7B36A002B78
:10A63000C1D04FF000094FF00C0A4FF0160B96F8FE
:10A640002C305FFA89F293427FF656AFB16A0AFB6B
:10A6500002F201EB0208B8F80430981CFE283FF61D
:10A6600073AE208803332B54238801339BB223809D
:10A6700005F803B0238801339BB223808A5AEA5439
:10A68000E918120A4A702088023080B22080B8F897
:10A6900004205AB1D8F8081000298CD0284401F0C1
:10A6A00056FB2388B8F804201344238009F10109DC
:10A6B000C5E7092155E7BB42FBD9ADF808704FE764
:10A6C00070B5E8B14AB116880024B44203D3051925
:10A6D0006D789D4208D0A14201D8002010E0055DB0
:10A6E00001352C44A4B2F0E7A142F6D9005D01384F
:10A6F000A31C80B29DB210FA83F38B42EDDC15806F
:10A7000070BD13B513460022ADF806200DF1060208
:10A710000446FFF7D5FF10B1BDF80630E01802B0CF
:10A7200010BD72DF704773DF704774DF704738B554
:10A73000012204460D46B0F81414D0F81004FFF7B7
:10A74000E0FF00B1057004F13C0204F5826104F100
:10A750005400BDE83840FFF7E4BF80F83010704780
:10A76000F8B504460F46002975D0002873D091F83B
:10A770007A301BB191F89830002B6ED1D7F8A03009
:10A78000042B6AD0D7F89C30042B66D04FF0000C15
:10A7900084F802C007F178060FCE251D0FC50FCE35
:10A7A0000FC596E8070085E8070084F830C0D7F8A1
:10A7B000A4306363D7F8A830A3634FF6FF7504F5A0
:10A7C0008263C4F82034A4F824540722614604F2BA
:10A7D000264001F0E5FA23780BB984F8545094F838
:10A7E0002430002B14BFEE231F2304F15501C4F8BD
:10A7F0001014A4F8143404F214423846FFF796FDFE
:10A8000040BB94F82430002B14BFEE231F2304F226
:10A810003121C4F81814A4F81C3404F21C4207F1C6
:10A820003C00FFF783FDA8B9A369A4F848304FF4B2
:10A8300080730125A4F8503063692064014684F8D0
:10A840003C50636404F13C0204F15400FFF769FFDB
:10A8500000B92570F8BD0E20FCE70720FAE7F8B52F
:10A86000077804460D46002F00F0038100F22646CB
:10A87000817007220021304601F092FAE38813B17B
:10A88000A378012B04D0E3794BB1A378022B06D136
:10A89000636BA3B1012284F82D2408209847334626
:10A8A00004F22C4113F8012F12B99942FAD117463C
:10A8B0006B1E032B51D8DFE803F0050B0F1284F851
:10A8C0002D34ECE7A3791BB194F8243003B95FB9B8
:10A8D000E3790BB1002F42D1237A002B41D1637A67
:10A8E000002B0CBF00250425636BA570002B3AD00C
:10A8F000033D012D37D86279AAB394F82E2492BB78
:10A9000084F83024012284F82F240720984704F18A
:10A910003C0518220021284601F042FAE26A531E43
:10A920000121022B28BF0A4684F8512094F82420E4
:10A9300084F83C1032B1A36A581E022828BF0B4687
:10A9400084F85230A178002384F8503004291BD8B1
:10A95000DFE801F0770D223559000025C4E7022514
:10A96000C2E70325C0E7002384F82F34CFE7C4E90A
:10A970001063C4F820340223012284F83C30802381
:10A9800084F83120A4F84830A378002B5CD1636BA5
:10A99000002B6AD1002067E00223002A84F83130BE
:10A9A00014BF0723032384F83C302369A4F84830FC
:10A9B0000023C4F82034E36826646364E4E7636931
:10A9C0006364A369A4F8483012B1062384F83C30CC
:10A9D0006379B3B194F82E349BB994F8303483B1D1
:10A9E000022384F8503004212046FFF7A0FE0028FF
:10A9F000CAD1052384F8313004F58263C4F82034C9
:10AA0000C2E70323F6E7E3696364236AA4F84830E6
:10AA100012B1062384F83C30637983B194F82E3464
:10AA20006BB994F8303453B1022384F850300421C8
:10AA30002046FFF77CFE0028A6D10623DAE7042390
:10AA4000D8E784F831309FE7D4F820142A4604F17F
:10AA50005400FFF766FE38B994F8301094F85400AB
:10AA6000FFF761FE002892D0F8BD94F831009847B6
:10AA700090E70820F8E70388112B10B50C460AD0A0
:10AA8000262B1FD0102B05D1C37B012B02D183882D
:10AA9000A1F8243410BD0022838881F82E24B1F857
:10AAA00024249A42F6D10B79002BF3D101212046C0
:10AAB000FFF7D5FE0028EDD0A36B002BEAD0BDE850
:10AAC00010401847037A013B012BE3D8897805230E
:10AAD0000131B1FBF3F303EB8303C91AC9B2E6E713
:10AAE00038B5044690F85400FFF71FFE012384F8A0
:10AAF0002E34002384F8303484F850300621204668
:10AB0000FFF715FE054638B9A1782046FFF7A7FEE6
:10AB100010B1A36B03B19847284638BD75DF704765
:10AB200076DF70477ADF70477BDF7047034B1A8808
:10AB300082420CBF18460020704700BF8C3D0020A9
:10AB4000024B9B6903B11847704700BF703D00205E
:10AB500073B585B22846FFF7E9FF044670B1164E7B
:10AB6000027A337B9A420BD200F10A012846FFF7A2
:10AB7000D5FFE8B1112801D0FFF7E2FF02B070BDA8
:10AB800000230372337C43B13B212846FFF7C8FF03
:10AB900030F0080301D0FFF7D3FF7369002BEDD02D
:10ABA00000228DF80420ADF8065001A89847E5E78B
:10ABB000237A01332372E1E7703D002037B50B465D
:10ABC000497A0F4A71B9D2E901141D7A0246002D63
:10ABD00018BF21465868FCF724FB08B1FFF7B0FF07
:10ABE00003B030BD002119725369002BF8D0012247
:10ABF000ADF806008DF8042001A89847F0E700BFE3
:10AC0000703D00204B8802889A4213D842889A42AD
:10AC100010D380888A8840F2F313984294BF031AB5
:10AC2000C31A934206D800F2F310904234BF0020BA
:10AC300001207047002070470388122B70B5014631
:10AC400059D004D8102B1ED0112B44D070BD502BDE
:10AC5000FCD12F4BC288DB899A42F7D1038A022BA1
:10AC6000F4D186883046FFF761FF05460028EDD015
:10AC700001F1120000F079F938BB6868FCF7E9FAD5
:10AC80000028E3D009E0C37B012BDFD14FF6FF7032
:10AC9000FFF74CFF054620B90420BDE87040FFF7E0
:10ACA0004FBF1C4A8E880680002303721368C0F8C9
:10ACB0000A305368C0F80E3010310A30FFF7A2FF97
:10ACC000134B6872DB89002BC0D129463046BDE8A2
:10ACD0007040FFF773BF8088FFF728FF0446002805
:10ACE000B4D04068FCF7B5FA08B1FFF729FF4FF67A
:10ACF000FF732380AAE786883046FFF717FF0546D3
:10AD00000028A3D008310A30FFF77CFF6872DCE727
:10AD1000703D0020A03D0020F8B5064648B305462A
:10AD20000FCD154F3C460FC495E8070084E8070097
:10AD30003068124C3C60B0B1FFF7F4FEC0B9326825
:10AD400013682360536863600D480E4A4FF6FF7323
:10AD500003800D4B40F8043F0021FCF757FA002810
:10AD600018BF032004E02046FFF7DEFE0028EBD0EA
:10AD7000F8BD0E20FCE700BF703D0020A03D002084
:10AD80008C3D002051AB0200A83D00200AB1FCF729
:10AD900047BEFCF74EBE73B50191019C06466CB1EF
:10ADA00000252C46294601A8FCF74DFE18B106EBFC
:10ADB000440301349D800135142DF3D130463460B5
:10ADC00002B070BD2DE9F04703888488103B8CB039
:10ADD00005460A2B1FD8DFE803F0063F1E1E1E1E85
:10ADE0001E1E1E604400314EB368DB430093716841
:10ADF0006846FCF754FE009901A8FFF7CCFF0DF15F
:10AE000008094FF00008019B984507D3132C13D96C
:10AE10000420FCF7D5F80CB0BDE8F08739F802AB98
:10AE200000270137514606EB8700FCF702FE1E2F74
:10AE3000F7D108F10108E6E71D482146FCF7F0FDCF
:10AE40001C482146FCF7ECFDEB7B012BE3D01A48B4
:10AE50002146FCF7E5FDDEE715482146FCF7E9FD54
:10AE6000D9E7027A15483F2A4FEA1215214694BFC6
:10AE700000220122FFF78AFF022D94BF0022012247
:10AE80000F482146FFF782FF012D0E4894BF002294
:10AE900001222146FFF77AFFBDE7037A002BBAD1E2
:10AEA000427A0648C2F3C0022146F3E7C83D0020BB
:10AEB000D03D0020CC3D0020D43D0020E03D0020CE
:10AEC000DC3D0020D83D00201328014602D802486E
:10AED000FCF7B9BD00207047CC3D002010B50446FA
:10AEE000FFF7F2FF002814BF2046142010BD70B5F4
:10AEF0000546164608460AB90E2070BD00231360A9
:10AF0000002DF9D02B68002BF6D0EB8813F003044A
:10AF10000ED1FFF7E3FFC0B214280BD02B79834288
:10AF20000AD9EB882A6800FB032030602046E4E75A
:10AF30000720E2E70520E0E70420DEE7AADF70470C
:10AF4000002301380B70042806D8DFE800F0030660
:10AF5000080A0C0011230B7070472123FBE73123F3
:10AF6000F9E71223F7E72223F5E7007800F0010064
:10AF70007047F0B58B7891B0012B0C4638BF012398
:10AF80008DF80E3005460B88ADF80C3000211646C2
:10AF90006846032200F004FF607C6946FFF7D0FF9B
:10AFA000A07C0DF10101FFF7CBFFE27B237B217D2C
:10AFB00043EAC203227C43EA02139DF802200029DF
:10AFC00022F0190203F0190314BF022101211343D7
:10AFD00061F342031C22002109A88DF8023000F021
:10AFE000DFFE637B13F0300F15D002AF0322002188
:10AFF000384600F0D5FEE07C0DF10901FFF7A0FF17
:10B0000011238DF808309DF80A300E97012262F363
:10B0100042038DF80A30637B8DF824301422A37B21
:10B020008DF82530002104A800F0BAFE03AB04938C
:10B03000A388ADF81C30A368CDF814D01BB1E2880A
:10B04000ADF818200893A369002B31D001AF03227B
:10B050000021384600F0A4FEA3691A88ADF82C2020
:10B060005A88ADF82E205A680D97187B0A923946F7
:10B07000FFF766FFA3690DF10501587BFFF760FF3D
:10B08000A269917A137A43EAC103D17A927B43EAA7
:10B0900001139DF80610002A03F0190321F019018D
:10B0A00014BF022201220B4362F342038DF80630E3
:10B0B000E36903B10C93334604AA09A92846FFF7B4
:10B0C0003DFF11B0F0BD90DF7047A5DF7047B5DFE1
:10B0D000704700007FB50023ADF80810ADF80A10E6
:10B0E0006A4602A9064603930093ADF80430FFF7C1
:10B0F000EAFF054600B3124B124CE41AE408FDF7D0
:10B1000079F8240444F0010403460F4932462046EE
:10B11000FBF787FCBDF80020BDF8023052EA0301BE
:10B1200003D00A492046FBF77CFCBDF804201AB185
:10B1300007492046FBF76CFC284604B070BD00BFF1
:10B1400058C50200A8C50200F4CD02003ECE0200A0
:10B150007DCE020080B14FF0F7130360FB23037133
:10B16000F723C3801723038141F6FB3200230161DB
:10B1700043818281184670470E20704730B1A1F19B
:10B180001703E02B04D80180002070470E20704781
:10B190000720704713B5034680880C46B8B91A8853
:10B1A000242A00F0968014D8112A71D0232A00F0A6
:10B1B0009E80102A3BD0A37A4BB1E1880020FFF794
:10B1C00084FF002840F099804FF48073638102B0BF
:10B1D00010BD3A2A65D0552AEDD1DB88C988A07206
:10B1E000172B38BF17238B4228BF0B462381FFF74D
:10B1F0006EFF60B1FCF7FEFF484B494902464948E3
:10B200001B1ADB081B0443F00100FBF701FCE37A87
:10B21000002BD0D12369002BCDD040F677220092AD
:10B220002289ADF80420694620469847C3E7DB7BB6
:10B230000A790A73012B13D0022B14D0E1882389D9
:10B240008B4205D20020FFF740FF70B90123E37263
:10B25000217B637B8B42AED20020FFF73BFFAAE746
:10B260000B88E380EAE74B88FBE7112802D1012332
:10B27000A372EDE7FCF7BEFF284B2B490246294895
:10B280001B1ADB081B0443F00100FBF7C1FBDFE7DF
:10B29000F723CB8017230B8141F6FB3348818B8149
:10B2A00089E75B89CA88934228BF1346172B0A692E
:10B2B00038BF17230B814AB1C97A39B140F67721DB
:10B2C0000091ADF804306946204690470023638121
:10B2D00071E71A7A0B694A73002B3FF46CAF4DF695
:10B2E0007A218DF8050000918DF804209BE7197AEA
:10B2F000237B994228BF1946AFE711283FF467AF77
:10B30000FCF778FF054B0849024606481B1ADB0884
:10B310001B0443F00100FBF77BFB58E7A8C50200C4
:10B3200004CF020058C50200D3CE0200B0DF704740
:10B3300066DF704710B5002104464088FFF7F8FF2C
:10B34000034608B9237210BD112801D10123F9E782
:10B350006368BDE81040184760B159B10378DE2B2F
:10B360000AD00B684360DE2303704FF6FF734380FF
:10B37000002070470E2070470820704728B10378DE
:10B38000DE2B04D14180002070470E20704708203A
:10B390007047F0B5054685B00C46F1B1E8B10B78C1
:10B3A000DE2B1AD182884B889A4204D10B7A13B1D2
:10B3B0000846FFF7BFFF2B88112B32D0512B0ED040
:10B3C000012B0AD12B7A012B07D1A98862889142DF
:10B3D00003D123722046FFF7ADFF05B0F0BDAE8864
:10B3E0006388B342F9D1AF79022FF6D1AD7B2B1F21
:10B3F000022BF2D800211022684600F0D1FC052D66
:10B4000014BF4FF4C0730023694630468DF80070B6
:10B41000ADF80430FFF78AFF0028DED06368984754
:10B42000DBE76388AA889A4204BF4FF6FF73638004
:10B43000D3E7A8DF7047ADDF7047AEDF704762DF4C
:10B44000704770B505468AB00C46002962D00028C6
:10B4500060D00388502B37D0572B72D0102B59D186
:10B4600081886069002601AA0196FFF740FD082245
:10B4700031460DEB020000F093FC02232189A888DD
:10B48000CDF80CD002AA0293FFF7D5FF002841D1D6
:10B49000A369002B3ED00398FFF767FD002839D041
:10B4A000019B0BB101221A701822002104A800F0A0
:10B4B00077FC02238DF81030AB88ADF81830019B73
:10B4C00005940793A36923E08188606902AAFFF7C6
:10B4D0000EFD1822002104A800F062FCAB8821892F
:10B4E000ADF81830EB88029A05949942079218D16A
:10B4F0002E8A022E15D16AB105F11200FFF735FD33
:10B50000029B48B101221A708DF81060A3690BB13B
:10B5100004A898470AB070BD187003238DF8103046
:10B52000F4E7A2899A42F5D1A369002BF2D0002258
:10B530008DF8102005F1120208922A8AADF8242015
:10B54000E6E78188606902AAFFF7D1FC014600287E
:10B55000E0D1029B1B78002BDCD0182204A800F05D
:10B560001FFC01238DF81030AB88ADF8183005941E
:10B57000029BA6E7F0B53A4B8FB002AD04460A46EF
:10B5800003F1100C2F46186859682E4603C608337D
:10B5900063453546F7D1002C5FD0002A5DD0136893
:10B5A000A36121463846FFF74AFF002853D12246BF
:10B5B000012512F8023B8DF8063001A92846ADF8A6
:10B5C0000450FFF736FF002845D10146202206A887
:10B5D00000F0E6FB22460223ADF8183012F80C3BCF
:10B5E0008DF81A30BDF824301E4E6088079623F47B
:10B5F0004F6323F00F0343F440632B4306A9ADF8D8
:10B6000024308DF829508DF82A50FFF7B2FC10BB7A
:10B610000146202206A800F0C3FB22460323ADF812
:10B62000183012F8043B8DF81A30BDF824306088C9
:10B63000079623F4875323F01F0343F480532B43CF
:10B64000ADF8243006A940F201138DF82950ADF869
:10B650002A30FFF78EFC0FB0F0BD0E20FBE700BFD5
:10B6600048CF0200F4000100F0B50F4687B016463F
:10B670001C46054618B3406901AA1946FFF737FC76
:10B68000D8B94FF6FF739C421BD0019BCBB11B78FE
:10B69000CBB13388F42B18D80146102202A800F051
:10B6A0007FFBAB88ADF8083002A901232046CDE925
:10B6B00004678DF80A30FFF7C0FE07B0F0BD0E201A
:10B6C000FBE70520F9E70820F7E70720F5E710DF9B
:10B6D0007047000013B5044609496846FCF72FFD82
:10B6E000019808B902B010BDD0E90021204690476A
:10B6F00018B16846FCF72DFDF2E71120F2E700BF14
:10B7000064CF020013B5044607496846FCF717FDED
:10B71000019B0BB902B010BD2046D3E90021904730
:10B720006846FCF716FDF3E77CCF02000B4991F861
:10B7300016335A09EC231341DB0706D5084B9A68E8
:10B740003AB94FF480030B60704742F20200FBF7F6
:10B7500037BC1A6842F480021A60704700E100E0CA
:10B7600008320020F7B5194F3C7864BB184E01250C
:10B7700020463570FFF7AEFF112821D02046FFF795
:10B78000C1FF144B8DF80340186801900DF10300C0
:10B79000FBF744FF104901A8FFF799FF0446B0FAF0
:10B7A00080F0400938709DF80300FBF75BFF3CB95F
:10B7B0000A4B34701C70FFF7B9FF2846FFF7A2FF51
:10B7C000204603B0F0BD0824FAE700BF453E002044
:10B7D000443E002060CF0200DD6F0200463E0020A4
:10B7E000014B1878704700BF453E002007B5084957
:10B7F0006846FCF7A4FC019B13B903B05DF804FB99
:10B80000D3E9002090476846FCF7A3FCF3E700BFAC
:10B8100070CF0200FFF7EABF60DF704769DF704753
:10B8200061DF704730B5114DADF5017D4FF4FA740D
:10B830000DF1020103A8ADF80240FFF7F1FF70B966
:10B84000294601A8FCF77BFC029B002BF0D003A843
:10B85000D3E90021904701A8FCF77BFCF4E7052819
:10B8600001D0FBF7ADFB0DF5017D30BD04D2020028
:10B87000024B1B780BB1FFF7D5BF7047473E002046
:10B8800030B5054685B00C46002900F0B5805B4B0D
:10B890000B600C22002101A800F082FA01238DF830
:10B8A000063022688DF80450062301A92020ADF847
:10B8B0000830FFF7B3FF60B1FCF79CFC504B5149D7
:10B8C000024651481B1ADB081B0443F00100FBF73A
:10B8D0009FF80C22002101A800F062FA01238DF8E4
:10B8E00005302268002301A94020ADF80630FFF79B
:10B8F00095FF60B1FCF77EFC414B4449024642484B
:10B900001B1ADB081B0443F00100FBF781F80C2233
:10B91000002101A800F044FAF72322688DF80450B2
:10B9200001A92320ADF80630FFF778FF60B1FCF7DE
:10B9300061FC334B3649024633481B1ADB081B04B3
:10B9400043F00100FBF764F80C22002101A800F08D
:10B9500027FA012022688DF8040001A9FFF75EFF95
:10B9600060B1FCF747FC264B2A49024626481B1AC1
:10B97000DB081B0443F00100FBF74AF80C2200210E
:10B9800001A800F00DFA4FF4B0632268019301A9F9
:10B99000A120FFF743FF60B1FCF72CFC184B1E49B8
:10B9A000024619481B1ADB081B0443F00100FBF791
:10B9B0002FF80C22002101A800F0F2F99DF80430C4
:10B9C00022686FF3000301A9A0208DF80430FFF76F
:10B9D00025FF034668B1FCF70DFC094B0F490246F1
:10B9E00009481B1ADB081B0443F00100FBF710F8A1
:10B9F0000023184605B030BD0E23FAE7D82A0020F0
:10BA0000B8C5020088CF020058C50200CECF0200A0
:10BA10001AD0020061D00200ADD00200FED00200B8
:10BA200073B505460668FFF7F7FE2B68B342044678
:10BA30001DD91A481A4B1B491B1ADB081B0443F07B
:10BA400002000190FAF7E0FF2B681749019832468F
:10BA5000FAF7E7FF4FF080532A68D3F80C31134907
:10BA600001989B0203F100539A1AFAF7D1FF2CB9FF
:10BA70000F4B01221A70204602B070BD2046FCF721
:10BA8000B9FB074B0B49024604481B1ADB081B0491
:10BA900043F00100FAF7BCFFEDE700BF58C5020014
:10BAA000B8C5020051D1020080D10200B1D102001C
:10BAB000473E0020DBD102004BDF70471FB50D4C25
:10BAC00001A8FFF7F9FF70B9214602A8FCF737FB80
:10BAD000039B002BF4D00198D3E90021904702A8E2
